:020000040800F2
:10000000300E0020010100084B140008CD13000839
:1000100049140008E70100084D2C0008000000000A
:10002000000000000000000000000000E7170008CA
:10003000E901000800000000CF170008EF170008D2
:100040001B0100081B0100081B0100081B01000820
:100050001B0100081B0100081B0100081B01000810
:100060001B0100081B0100081B0100081B01000800
:100070001B0100081B0100081B0100081B010008F0
:100080001B0100081B0100081B0100081B010008E0
:10009000E52B00081B0100081B0100081B010008DC
:1000A0001B0100081B0100081B0100081B010008C0
:1000B0001B0100081B0100081B0100081B010008B0
:1000C0001B0100081B0100081B0100081B010008A0
:1000D0001B010008991B00081B0100081B010008F8
:1000E0001B0100081B0100081B010008DFF80CD0F1
:1000F00000F03CF8004800476D2C0008300E00204E
:100100000648804706480047FEE7FEE7FEE7FEE7B1
:10011000FEE7FEE7FEE7FEE7FEE7FEE7551800080C
:10012000ED00000840EA01039B0703D009E008C97D
:10013000121F08C0042AFAD203E011F8013B00F8AC
:10014000013B521EF9D27047D2B201E000F8012BF8
:10015000491EFBD270470022F6E710B513460A4647
:1001600004461946FFF7F0FF204610BD064C074D28
:1001700006E0E06840F0010394E807009847103477
:10018000AC42F6D3FFF7B6FF082D0008282D000873
:1001900070B58C1810F8015B15F0070301D110F849
:1001A000013B2A1106D110F8012B03E010F8016B76
:1001B00001F8016B5B1EF9D12B0705D40023521EF9
:1001C0000DD401F8013BFAE710F8013BCB1A921C61
:1001D00003E013F8015B01F8015B521EF9D5A1425F
:1001E000D8D3002070BDFEE77047704710B590F877
:1001F00021100024022903D00421816301243DE061
:1002000001680A6822F00E020A6001680A6822F09A
:1002100001020A601A4A0168914201D1012121E0DC
:10022000174A1432914201D110211BE0144A28329E
:10023000914201D1891515E0114A3C32914201D118
:1002400089140FE00E4A5032914202D14FF48031AE
:1002500008E00B4A6432914202D14FF4801101E070
:100260004FF08071064A083A5160012180F8211050
:10027000002180F82010416B01B18847204610BD55
:10028000080002402DE9F84FDFF890A100220AF1A2
:10029000040B144601274FF00F090BF1040E00BFA9
:1002A0000B6807FA04F52B40AB4274D1DFF870C13C
:1002B0004E68A6EB0C0866452BD00DDC032E34D01F
:1002C00005DC36B3012E19D0022E2FD11BE0112EE2
:1002D00016D0122E2AD119E0B8F5881F19D006DCE5
:1002E000B8F5803F15D0B8F5801F1FD111E0B8F5E3
:1002F000001F0ED0B8F5041F18D10AE0CA6815E037
:10030000CA68121D12E0CA6808320FE0CA680C32CF
:100310000CE08A682AB1012A4FF0080203D0456137
:1003200004E0042202E0056100E00022FF2B01D876
:10033000064601E000F104064FEA840501D9A5F163
:100340002005D6F800C009FA05F82CEA080C02FAD4
:1003500005F54CEA050CC6F800C04D68ED0057D510
:10036000304DAE6946F00106AE61AD6924F003067A
:1003700005F0010500952C4D06EB050CDCF8085046
:10038000A6074FEA167809FA08F6B543274EB04299
:1003900002D1002610E03BE0254EB04201D10126FB
:1003A0000AE0244EB04201D1022605E0224EB042BE
:1003B00001D1032600E0042606FA08F62E43CCF805
:1003C00008604D68DAF80060ED03554601D51E431C
:1003D00000E09E432E604D68DBF80060AD035D4693
:1003E00001D51E4300E09E432E604D68DEF800609C
:1003F000ED02754601D51E4300E09E432E604D6818
:10040000AD020E4D2E6801D51E4300E09E432E60C6
:10041000641C102CFFF444AFBDE8F88F00040140C9
:1004200000001110001002400000014000080140CF
:10043000000C014000100140001401400C04014078
:1004400001488068704700006C0000200248816805
:1004500002781144816070476C000020074810B595
:10046000016841F010010160032000F073F80020E2
:1004700000F006F800F024F8002010BD0020024033
:1004800070B50D4D04464FF47A712878B1FBF0F049
:100490000A490968B1FBF0F000F0C0FD48B9102C22
:1004A00007D200222146501E00F034F800206C6074
:1004B00070BD012070BD00006C000020780000209D
:1004C0000C4808B5816941F001018161816901F041
:1004D00001010091C16941F08051C161C06900F022
:1004E000805000900448416821F0E06141F0806153
:1004F000416008BD001002400000014000F01F02F2
:10050000012191404009800000F1E020C0F8001175
:1005100070470000F0B40E4B1B680C46C3F3022377
:10052000C3F10705042D00D90425191D072901D29F
:10053000002300E0DB1E012606FA05F1491E2140DA
:1005400099409E40761E16403143F0BC00F07EBFBD
:100550000CED00E0064900F0070208684FF6FF03C3
:10056000184040EA0220034A104308607047000028
:100570000CED00E00000FA0510B50C0605D501F001
:100580007F0100EB4110283003E000EB411000F543
:100590000A7099B232B101228272C180190C0181B4
:1005A000002010BD002282728180F9E7704700EBC5
:1005B0004112D0F85C04D26B01F023BD00EB411274
:1005C000D0F85C04D2F83C2201F070BD10B50446AE
:1005D0000A460B0601F07F0004EB401101D52831DB
:1005E00001E001F50A710870D009487094F82804F8
:1005F000012809D0012084F82804206802F00EF9AF
:10060000002084F8280410BD022010BD70B50A46F1
:100610000446090602F07F0003D504EB401128319F
:1006200003E004EB421101F50A7100258D7008709A
:10063000D009487094F82804012809D0012084F8D2
:100640002804206802F098F984F82854002070BD2E
:10065000022070BD70B504460D460E0601F07F0005
:1006600004EB401101D5283101E001F50A71087051
:10067000E80948700A61CB7094F82804012809D071
:10068000012084F82804206801F098FF002084F8F5
:10069000280470BD022070BD70B50C4601F07F05C6
:1006A00000EB4511C1E98F230022C1F8442281F8F3
:1006B000292281F8285201F50A716206006802F0C9
:1006C000B5F9002070BD70B50D460446090605F069
:1006D0007F0003D504EB4011283103E004EB451102
:1006E00001F50A7101228A700870E809487094F8CF
:1006F0002804012807D084F82824206802F071F922
:10070000680602D006E0022070BD04F22C41206889
:1007100002F030F9002084F8280470BD70B50C4652
:1007200001F07F0500EB4511C1E90F2300224A6467
:10073000012281F8292001F8285F6206006802F092
:1007400075F9002070BD10B50446006802F050FA3B
:10075000000402D5204600F089FE206802F048FA25
:1007600040050CD5206830F8441F21F480610180D9
:10077000204600F0EDF80021204600F004F9206842
:1007800002F036FA400405D5206830F8441F21F401
:1007900080410180206802F02BFA800405D5206892
:1007A00030F8441F21F400510180206802F020FA43
:1007B000C00414D5206830F8401F21F004010180E6
:1007C000206830F8401F21F008010180204600F029
:1007D000D2F8206830F8441F21F48051018020684D
:1007E00002F006FA00051AD5206830F8401F41F0E3
:1007F00008010180206830F8441F21F40061018065
:10080000206830F8401F41F004010180206802F0A8
:10081000EFF9C043C00402D5204600F0E9F8206893
:1008200002F0E6F9800508D5206830F8441F21F46D
:1008300000710180204600F0A2F8206802F0D8F98B
:10084000C00505D5206830F8441F21F4807101806F
:1008500010BD00002DE9F04186B004004FF0000506
:1008600004D094F82904002620B108E0012006B045
:10087000BDE8F08184F82864204600F04BF803209E
:1008800084F82904206802F06EF804F110011422A3
:1008900088466846FFF746FC94E80F0001F0BCFF6D
:1008A0000021206802F0B7F95FF0010704EB451062
:1008B00080F8297000F8285F8581C670066146615E
:1008C0006D1C86610F2DF1D35FF0000004EB401129
:1008D00081F8296281F82802888681F82B62C1F8A4
:1008E0003862C1F83C62401CC1F840620F28EDD369
:1008F000142241466846FFF715FC94E80F0002F009
:1009000023F884F8246084F82974206802F01AF827
:100910000020ACE708B500680B49884212D10B48AB
:10092000C16941F40001C161C069002200F4000006
:10093000009005211420FFF7EDFDBDE808401420CC
:10094000FFF7DCBD08BD0000005C00400010024065
:1009500070B5044680680125022801D0FFF745FCE8
:100960002946D4F85C0401F05FFCD4F85C04BDE8CF
:10097000704001F028BCD0F85C0401F043BCD0F812
:100980005C0401F045BC10B5044690F82804012829
:100990000BD0012084F8280484F82410206802F089
:1009A0003CF9002084F8280410BD022010BDD0F8C6
:1009B0005C2400F22C41104601F042BC10B5044604
:1009C00090F82804012810D0012084F8280401465A
:1009D0002046FFF7EBFD206801F0B2FF206802F02F
:1009E000FAF8002084F8280410BD022010BD000091
:1009F00010B50446D0F85C0401F061FCA069002841
:100A000004D00348016841F00601016010BD0000F8
:100A100010ED00E02DE9F84305460078354CC0079D
:100A200054D0E0690026C00008D4E06940F080504E
:100A3000E061E069012600F0805000902E480168D6
:100A4000C90512D40168804641F480710160FFF746
:100A5000F7FC074605E000BFFFF7F2FCC01B642867
:100A600023D8D8F80000C005F6D5206A10F44070ED
:100A700021D0A98801F4407181421CD0206A1F490D
:100A8000012220F440700A6000220A602062C00740
:100A900011D0FFF7D5FC074641F2883808E000BFC7
:100AA000FFF7CEFCC11B414502D90320BDE8F88306
:100AB000206A8007F4D5206A696820F440700843F2
:100AC00020621EB1E06920F08050E0612878800744
:100AD00005D56068A96820F4404008436060287824
:100AE000C00605D56068E96820F4800008436060AE
:100AF0000020DBE70010024000700040400442424A
:100B00002DE9F047DFF8548105460E46D8F800007D
:100B100000F00700B0420CD2D8F8001021F0070115
:100B20003143C8F80010D8F8000000F00700B042C8
:100B30006FD128684A4C810712D5400703D56068F9
:100B400040F4E06060602878000703D5606840F4F6
:100B5000605060606068A96820F0F0000843606041
:100B60002878C00744D06868012816D02168022878
:100B700016D0890700294CDA616821F0030101438E
:100B80006160FFF75DFC6968074641F28830012922
:100B90000ED00229814618D026E021688903E9E7B2
:100BA0008901E7E7FFF74CFCC11B494501D918E073
:100BB00081466068C0F381000128F3D118E000BFCE
:100BC000FFF73EFCC11B49450BD86068C0F38100AC
:100BD0000228F5D10CE000BFFFF732FCC11B4945EC
:100BE00002D90320BDE8F087606810F00C0FF3D144
:100BF000D8F80010404601F00701B1420BD9016856
:100C000021F0070131430160006800F00700B042A5
:100C100001D00120E6E72878400705D56068E9683B
:100C200020F4E060084360602878000706D560681B
:100C3000296920F4605040EAC100606000F036F895
:100C40006168084AC1F30311515CC8400649086055
:100C50000020FFF715FC0020C4E700000020024040
:100C600000100240F02C00087800002004480549DC
:100C700000684968044AC1F30221515CC8407047CA
:100C80007800002000100240002D000804480549AB
:100C900000684968044AC1F3C221515CC8407047EA
:100CA0007800002000100240002D000812A185B03D
:100CB0000FC98DE80F0014A0144A00680490516811
:100CC000134801F00C03042B10D0082B0ED1C1F3F4
:100CD0008343C9031DF803000AD5516804AAC1F370
:100CE0004041515C0A4A5043B0FBF1F005B07047F7
:100CF00008494843FAE7000002030405060708090B
:100D00000A0B0C0D0E0F1010010200000010024023
:100D100000127A0000093D002DE9F84F04460078E2
:100D2000B94DC00748D06868C0F38100012807D0DA
:100D30006868C0F38100022809D16868C00306D53D
:100D40002868800338D5606800286FD034E0606878
:100D5000B0F5803F0BD010B1B0F5A02F11D02868AE
:100D600020F480302860286820F4802002E0286881
:100D700040F480302860606888B1FFF761FB064668
:100D800009E0286840F480202860F0E7FFF758FB6E
:100D9000801B642875D828688003F7D50CE0FFF71E
:100DA0004FFB064605E000BFFFF74AFB801B6428A7
:100DB000F0D828688003F7D42078944E80074FF04D
:100DC00001094FF000083BD5686810F00C0F07D000
:100DD0006868C0F38100022809D16868C00306D49E
:100DE0002868800714D5206901281FD110E02069E8
:100DF000B0B1C6F80090FFF723FB074605E000BF3F
:100E0000FFF71EFBC01B0228C4D828688007F7D54F
:100E10002868616920F0F80040EAC10028600FE00E
:100E2000C6F80080FFF70CFB074606E0E9E000BFCC
:100E3000FFF706FBC01B022823D828688007F7D4D9
:100E4000207800072CD57248A169D9B1C0F800906C
:100E5000FFF7F6FA074604E0FFF7F2FAC01B022894
:100E60000FD8686A8007F7D56A484FF4FA510068CE
:100E7000B0FBF1F0009000BF0098411E0091FAD243
:100E80000EE080E0C0F80080FFF7DAFA074604E0E1
:100E9000FFF7D6FAC01B022875D8686A8007F7D416
:100EA0002078400760D5E8690027C00008D4E869C9
:100EB00040F08050E861E869012700F08050009020
:100EC00055480168C90513D40168834641F480710F
:100ED0000160FFF7B5FA824606E000BFFFF7B0FAFF
:100EE000A0EB0A0064284ED8DBF80000C005F5D559
:100EF000E06801280AD008B1052813D0286A20F03C
:100F000001002862286A20F0040002E0286A40F00C
:100F100001002862E06841F2883B98B1FFF790FA3F
:100F200082460BE0286A40F004002862EEE700BF2A
:100F3000FFF786FAA0EB0A0159455AD8286A8007BC
:100F4000F6D50CE0FFF77CFA824605E0FFF778FA69
:100F5000A0EB0A0159454CD8286A8007F6D41FB186
:100F6000E86920F08050E861E06988B36968C1F3FE
:100F70008101022945D00228C6F8608004D0FFF71D
:100F80005FFA044638E034E0FFF75AFA074604E017
:100F9000FFF756FAC01B02282BD828688001F7D427
:100FA000206AB0F5803F05D16868A16820F4003060
:100FB00008436860D4E908010843696821F47411A2
:100FC00008436860C6F86090FFF73AFA044606E006
:100FD00015E000BFFFF734FA001B022809D8286883
:100FE0008001F7D50BE000BFFFF72AFA001B0228AB
:100FF00002D90320BDE8F88F28688001F4D40020CE
:10100000F8E70120F6E7000000100240000042422D
:1010100080044242780000200070004010B5401E5D
:10102000B0F1807F01D3012010BD4FF0E02460615A
:101030000F21601700F00AFA0020A061072020614C
:10104000002010BD7047000070B5026804461068AB
:10105000D168536910F00F0F51D003F0010501F46E
:10106000907635435DD0C20705D0CA0503D5E26B43
:1010700042F00102E263420705D5DA0703D0E26BD2
:1010800042F00202E263820705D5DA0703D0E26B81
:1010900042F00402E263020705D5DA0703D0E26BEF
:1010A00042F00802E263E26B002A34D0800604D5E5
:1010B000880602D5204600F007FC20684069E16BF5
:1010C000C0F3801001F008010143204624D000F055
:1010D000EDFB2068416949061AD5416921F04001BC
:1010E0004161606BA0B11B494163606BFFF77EF803
:1010F000002810D0606B416BBDE870400847830644
:101100000FD58B060DD52046BDE8704000F0DCBB46
:101110002046FFF797FF70BDFFF794FF0020E063C4
:1011200070BD030606D50B0604D52046BDE8704009
:1011300000F0CEBC4006F3D54806F1D5D168204674
:1011400021F04001D160202184F8391000F03DF9F0
:1011500070BD00009D18000870B5040004D094F81C
:101160003900002510B106E0012070BD84F8385028
:10117000204600F023F8242084F839002068C16854
:1011800021F40051C160204600F0EAFB20680169AB
:1011900021F4904101612068416921F02A014161F7
:1011A0002068C16841F40051C160E563202084F8E3
:1011B000390084F83A00002070BD000030B585B0D9
:1011C0000024009401940294039400681849884212
:1011D0002CD11848816941F480418161816901F411
:1011E00080410491816941F0040181618069124D5F
:1011F00000F0040004904FF4007000900220019071
:101200000320039069462846FFF73CF82815CDE9EE
:101210000004694628460294FFF734F800220321AF
:101220002520FFF777F92520FFF768F905B030BDD5
:1012300000380140001002400008014090F83A30A8
:10124000202B22D1F9B1F2B190F83830012B1CD00B
:1012500081628285C2850021C163222280F83A2002
:1012600080F838100168CA6842F48072CA60016868
:101270004A6942F001024A610068C16841F02001F8
:10128000C1600020704701207047022070470000B5
:1012900038B51B4A0168914230D11A4C04F102055D
:1012A00021780A060CD5FF218DF800104FF6FF7348
:1012B0000122694600F02CF820782870607801E05F
:1012C00060782954401C6070C0B208280FD30020F9
:1012D0000D4B607029182C5C4A78C0F10601CA4099
:1012E000411C8C4022431A54C8B20728F2D3BDE8EF
:1012F0003840012203490548FFF7A0BF38BD000070
:10130000003801401000002000000020540100209F
:101310002DE9F843044690F839001F4616460D465D
:10132000202850D1A5B19EB194F8380001284AD0A8
:10133000012084F838004FF00008C4F83C802120D8
:1013400084F83900FFF77CF8A6848146E68426E01D
:101350000120BDE8F883E08C401EE084A0684B4685
:10136000B0F5805F4FF000024FF0800120460097FB
:1013700003D000F0DEFBE8B90DE000F0DAFBC8B9FD
:1013800028882168C0F308004860206908B16D1CF6
:1013900005E0AD1C03E0216815F8010B4860E08C06
:1013A0000028D8D14B46002240212046009700F06B
:1013B000C0FB08B10320CCE7202084F8390084F872
:1013C00038800020C5E70220C3E77047FEE7000031
:1013D000F0B500230A24302537261F4611E000BF50
:1013E000B4EB107F02D905EB107C01E006EB107C1A
:1013F00001F813C001EB430C00015B1C8CF8017079
:10140000DBB29342ECD3F0BD10B500220B490C487F
:1014100000F0D0FD08B1FEF7E8FE0A49084800F0E8
:1014200074FF08B1FEF7E1FE054800F0BBFF00289D
:1014300003D0BDE81040FEF7D8BE10BD1C00002050
:101440009401002080000020FEE770470907090E84
:10145000002806DA00F00F0000F1E02080F8141DEB
:10146000704700F1E02080F8001470472DE9FC5F20
:101470004FF000080446ADF80480ADF8008048F64F
:101480000F7B4FF002094FF4806692E1BDF8041023
:1014900011F00F072BD030F82710ADF80010BDF871
:1014A0000010090478D530F8272040F68F710A40E3
:1014B00020F8272004EB471595F8320205F50A7548
:1014C0000028206869D0297830F8212052047DD581
:1014D000B0F8503009EBC101194406EB4101415A03
:1014E000C1F309015FEA010A71D0EA88D0E0BDF8D2
:1014F0000410C9062AD4018801EA0B010180206882
:1015000004F12805B0F850202B7809EBC3011144F1
:1015100006EB4101405AC0F309006064E16B0844E6
:10152000E06300212046FFF742F894F824000028E9
:10153000ABD0A8690028A8D194F82400216840F015
:101540008000A1F84C0084F8248032E1018804F581
:101550000A75ADF80010BDF8001009051ED5B0F8E9
:1015600050302978062202EBC101194406EB4101F3
:10157000405A04F22C41C0F30903EB61AA882068A9
:1015800001F03AFB2068018840F68F72114001801B
:101590002046FFF70CFA0CE1A0E055E0BDF8001082
:1015A0000904D2D5028840F68F710A400280206873
:1015B000B0F850302978062202EBC101194406EB3D
:1015C0004101405A83059B0DEB6101E051E063E06E
:1015D00008D0AA886969206801F00EFBE96968698A
:1015E0000844686100212046FEF7E8FF2068B0F853
:1015F0005010891D06EB4101014428693E280CD991
:10160000C0F34F12C00601D1521E92B24FF6FF70C6
:1016100000EA822040F4004009E0C0F34F02C00716
:1016200001D0521C92B24FF6FF7000EA822008608F
:10163000216808884BF68F72104080F4405048F2C1
:10164000800210430880B4E0B0F850202B780621C7
:1016500001EBC301114406EB4101415AC1F30901F9
:101660005FEA010A24D0AA885346696901F0C4FAE6
:101670001EE0B0F85020062303EBC101114406EB35
:101680004101415AC1F309015FEA010A04D02A89E4
:101690005346696901F0B0FA2978206830F82130A2
:1016A00048F68F72134048F2C002134320F82130ED
:1016B000E96901EB0A00E861696901EB0A026A6104
:1016C000AB6913B12869504504D929782046FEF743
:1016D00075FF03E029782046FEF7DEFFBDF8000025
:1016E000000666D5206804EB471530F8271001EA9C
:1016F0000B0120F8271095F83200283500282068C3
:1017000012D0297830F82120B0F8503052061ED57A
:1017100009EBC101194406EB4101405A83059B0DB9
:10172000EB6124D0EA881EE0B0F850302A7809EB4B
:10173000C201194406EB4101405A83059B0DEB6140
:1017400021D0AA886969206801F06DFA1BE00622A1
:1017500002EBC101194406EB4101405A83059B0D80
:10176000EB6104D02A896969206801F05CFA297864
:10177000206830F8212048F68F731A404CF280031D
:101780001A4320F821202068B0F850202B7809EB6C
:10179000C301114406EB4101405AC0F30900E8615E
:1017A00069690A186A612978AB69204663B1FEF756
:1017B000B5FF2068B0F84410ADF8041009043FF5F7
:1017C00065AE0020BDE8FC9FFEF7F1FEF1E7704733
:1017D0000021016041608021C170017141718171FE
:1017E0000821817070477047082200F081BBFEF726
:1017F0002DBE30B593B028216846FEF7ACFC14210D
:101800000AA8FEF7A8FC002401200F94109411945C
:10181000010412948DE8130004904FF4E010CDE918
:101820000810022507956846FFF776FA0F20CDE9E4
:101830000A056802CDE90C4002210AA80E94FFF7C0
:101840005FF910200F9012940FA8FFF7E3F813B080
:1018500030BD00000D48016841F0010101604168A0
:101860000B4A1140416001680A4A11400160016859
:1018700021F480210160416821F4FE0141604FF4B0
:101880001F0181600449C0030860704700100240D6
:101890000000FFF8FFFFF6FE08ED00E010B5406A1B
:1018A0000021C185C184FFF7CDFB10BD0168CA6866
:1018B00022F49072CA6001684A6922F001024A610A
:1018C000202180F83A10704710B590F83A1022297C
:1018D00001D0022010BD8168B1F5805F11D001698F
:1018E000002901681FD0496801F07F03816A4A1C02
:1018F00082620B70C18D491E0904090CC18518D084
:101900002BE00269816A002A0268526805D0D2B2CF
:101910000A80816A491C8162ECE7C2F308020A80EE
:10192000816A891CF7E74A68816A4B1C83620A70E6
:10193000E0E70168CA6822F02002CA600168CA684C
:1019400022F48072CA6001684A6922F001024A6189
:10195000202180F83A10FFF79BFC002010BD00000A
:101960002DE9F041044600680169E26821F4405124
:10197000114301612169A068084361690843216836
:10198000CA6841F20C639A430243CA602068416905
:10199000A26921F44071114341614C4920686425DA
:1019A000322688423CD1FFF771F900EBC00101EB10
:1019B000001061688900B0FBF1F7FFF767F900EBF1
:1019C000C00101EB00106168B0468900B0FBF1F086
:1019D000B0FBF5F06FF01801484307EB800106EB10
:1019E0000110B0FBF5F000F0F006FFF74FF900EB47
:1019F000C00101EB001061688900B0FBF1F0B0FBA1
:101A0000F5F006EB0016FFF741F900EBC00101EB22
:101A1000001061688900B0FBF1F7FFF737F93BE090
:101A2000FFF724F900EBC00101EB001061688900A9
:101A3000B0FBF1F7FFF71AF900EBC00101EB001062
:101A40006168B0468900B0FBF1F0B0FBF5F06FF0D3
:101A50001801484307EB800106EB0110B0FBF5F0DD
:101A600000F0F006FFF702F900EBC00101EB0010F7
:101A700061688900B0FBF1F0B0FBF5F006EB0016F1
:101A8000FFF7F4F800EBC00101EB0010616889007A
:101A9000B0FBF1F7FFF7EAF800EBC00101EB001033
:101AA00061688900B0FBF1F0B0FBF5F06FF0180150
:101AB000484307EB800108EB0110B0FBF5F021680B
:101AC00000F00F0030448860BDE8F081003801402C
:101AD00090F83910212901D0022070478168B1F5B2
:101AE000805F016A0BD04A1C02620268097851606B
:101AF000C18C491E0904090CC1840ED017E0098865
:101B00000268C1F30801516001690029016A02D02D
:101B1000491C0162ECE7891CFBE70168CA6822F0F6
:101B20008002CA600068C16841F04001C1600020C5
:101B300070472DE9F041984617460E460446069D2B
:101B40001DE0681C1BD02DB1FEF77AFCA0EB08004D
:101B5000A84214D92068C16821F4D071C1602068FE
:101B6000416921F001014161202084F8390084F8A5
:101B70003A00002084F838000320BDE8F081206896
:101B8000006836EA000004D00020B842D9D0002016
:101B9000F3E70120F9E700000148FFF755BA00001C
:101BA0005401002010B5D0F814225268904700204C
:101BB00010BD134610B50A46002100F0FBFA0020C4
:101BC00010BD134610B50A46002100F081FB00202D
:101BD00010BD10B50446802100F05FFB2046BDE833
:101BE0001040002100F059BB10B505210023C0F8BA
:101BF000F4111A46194600F0DDFA002010BD10B5A8
:101C000002238261C0F8F431C26113460A46002102
:101C100000F05EFB002010BD10B504210023C0F8C9
:101C2000F4111A46194600F053FB002010BD0000C5
:101C300010B50A46024903A000F0DAF8004810BDCA
:101C40002C08002048494420436F6E6669670000F5
:101C500012200880004870473C00002010B50A465A
:101C6000024903A000F0C4F8004810BD2C08002071
:101C700048494420496E74657266616365000000DE
:101C800004200880004870473800002010B50A463C
:101C9000024903A000F0ACF8004810BD2C08002059
:101CA000484F524920434F2E2C4C54442E000000E4
:101CB00010B50A46024903A000F09AF8004810BD8A
:101CC0002C080020504F4B4B454E20434F4E545252
:101CD0004F4C4C455200000010B51A2008800A48AD
:101CE0000168001D0468001D0068081809D008225A
:101CF0000649FFF76DFB0549042210312046FFF726
:101D000067FB0248801E10BDE8F7FF1F520000204D
:101D1000F8B5044648880D46010A08294BD2DFE889
:101D200001F04A0409174A4A4048D4F81012207CAE
:101D30000A6832E0207C02260028D4F8140205D07C
:101D4000C16A684688470146467041E0816AF8E703
:101D5000C0B206282FD2DFE800F003080D12171CCE
:101D6000D4F81012207C4A6817E0D4F81012207CB6
:101D70008A6812E0D4F81012207CCA680DE0D4F80A
:101D80001012207C0A6908E0D4F81012207C4A69FD
:101D900003E0D4F81012207C8A6969469047014616
:101DA00016E0207C38B9D4F81402416B68468847A5
:101DB000F5E7207C20B129462046FFF70AFFF8BD51
:101DC000D4F81402016B6846884701460720487022
:101DD000BDF800000028F2D0EA88002AEFD0824245
:101DE00000D90246ADF800202046FFF708FFF8BDF5
:101DF00070B5002300281DD00446002502E06D1CAC
:101E0000EDB2641C2678002EF9D1022404EB4504BF
:101E10001480CC545B1C0322CA5400245B1C06E0D3
:101E2000CA545B1CDAB28C54521CD3B2401C0278E8
:101E3000002AF5D170BD01004FF0000004D0012947
:101E400001D0022901D00220704701207047D0F84C
:101E5000180200210173084670470000054810B5BC
:101E6000D0F820020823044A0221FEF715FC0020C6
:101E700010BD0000940100200800002010B50446A9
:101E8000812100F0B5F8D4F8180220B100F090FBE1
:101E90000020C4F81802002010BD00002921018094
:101EA00000487047B80000200A21018000487047B0
:101EB000F000002070B50546002440230322812154
:101EC00000F06CF9102000F075FBC5F8180208232B
:101ED000064A0221284600F06DF9D5F8180218B11B
:101EE00000210173204670BD0124FBE7080000209B
:101EF00010B5134690F8FC41D0F81822032C07D1F6
:101F0000147B2CB9012414730A46812100F0E0F9F6
:101F1000002010BD70B500220D78D0F8183214469C
:101F200015F060051BD0202D40D14A78022A13D02D
:101F3000032A0AD00A2A0BD00B2A03D0FFF749FE46
:101F4000022070BD8878186030E00122194624E034
:101F50004888000A586029E00122191D1DE04D78CB
:101F6000062D04D00A2D1BD00B2D1FD11CE04B8851
:101F70002225B5EB132F05D1CA88562A00D956223F
:101F80000B4C09E02125B5EB132F05D1084CCA886D
:101F9000183C092A00D909222146FFF730FE05E046
:101FA000012203F10801F8E788789860002070BDED
:101FB000FC00002010B580B1D0F8143213B100231A
:101FC000C0F8143209B1C0F81012012180F8FC11D8
:101FD000027000F0A1F8002010BD022010BD10B565
:101FE000D0F82002FEF712FBBDE81040FFF723BF38
:101FF00010B5D0F82002FEF7E9FABDE81040FFF76F
:102000001ABF2DE9F0411746044641B1D4F8140235
:1020100042698AB394F8FC01032842D043E0D4F823
:10202000F411002504F11400022933D1D0E9026330
:102030009E4207D9F31A83609AB239462046FFF7C9
:10204000C0FD12E04068B0FBF3F103FB1101A1B940
:10205000984212D3D4F8F81188420ED200221146C9
:102060002046FFF7AEFDC4F8F85100231A46194682
:10207000204600F09FF80DE012E0D4F81402C16889
:1020800029B194F8FC01032801D120468847204655
:10209000FFF7AAFD94F80002012804D184F8005249
:1020A00001E0204690470020BDE8F08170B515465C
:1020B000044641B1D4F8140282693AB394F8FC01A1
:1020C000032824D025E0D4F8F41104F58270032904
:1020D0001FD1D0E902218A420BD9531A83600846E6
:1020E000834200D303469AB229462046FFF761FD9A
:1020F0000FE0D4F81402016929B194F8FC01032817
:1021000001D1204688472046FFF786FD01E02046A2
:102110009047002070BD000010B517490446C1F873
:102120005C04C0F8201215480860082048600220AE
:10213000886000208861C86108620846FEF78AFB53
:1021400008B1FEF752F80022D4F8200218231146F5
:1021500004F50874FEF710FA582300228021206845
:10216000FEF70AFA4FF48073002281212068FEF7FF
:1021700003FA002010BD0000CC030020005C0040EA
:102180000A06D0F8200201F07F0100EB411002D5D1
:1021900090F82A00704790F82A02704710B51C4644
:1021A0001346D0F820022246FEF754FABDE810404C
:1021B000FFF741BE10B5D0F82002FEF76DFABDE87A
:1021C0001040FFF738BE70B5002204464023114688
:1021D000FFF7E4FF40252B46002280212046C4F86B
:1021E0001051FFF7DBFF0120256284F8FC01D4F8D1
:1021F000180228B1D4F81402217942682046904789
:10220000002070BD90F8FD1180F8FC11002070478F
:1022100010B590F8FC11032904D1D0F81412C96943
:1022200001B18847002010BD01740020704710B52F
:10223000D0F82002FEF7A7FBBDE81040FFF7FBBD7A
:1022400070B5044600F50270054600F04AF801201A
:10225000C4F8F401B4F80E02C4F8F80194F80802C6
:1022600010F01F010AD001290DD0022910D000F072
:102270008001204600F011F8002070BD294620465C
:1022800000F095F8F8E72946204600F077F9F3E7E3
:102290002946204600F004F9EEE710B5D0F82002F8
:1022A000FEF711FABDE81040FFF7C5BD10B5D0F834
:1022B0002002FEF783FBBDE81040FFF7BCBD90F89D
:1022C000FC1180F8FD11042180F8FC1100207047FA
:1022D00010B5D0F82002FEF721FABDE81040FFF754
:1022E000AABD0A7802704A7842708A78CB7802EBED
:1022F000032242800A794B7902EB032282808A7999
:10230000C97902EB0121C18070470246002011B15A
:10231000C2F8141270470220704710B5D0F814228A
:1023200002241AB11268904700B90024204610BD5B
:1023300070B50E461A4D897804462970012928D8AF
:1023400094F8FC01022802D0032822D105E099B1BB
:102350000320616084F8FC0109E091B16068884263
:102360000AD0C1B22046FFF71DFC297861602046E3
:10237000FFF7D3FF02280CD02046BDE87040FFF7DE
:102380004BBC022084F8FC0120466160FFF70AFC88
:10239000F2E731462046BDE87040FFF71ABC000066
:1023A0007C00002010B5FFF781FF002010BD2DE953
:1023B000F04100264B78012532460A2B43D2DFE854
:1023C00003F03C584251420805422A27FFF7A0FC7F
:1023D00063E004468888C8B9C888B8B9887800F02E
:1023E0007F0794F8FC01032810D084F8FE71394669
:1023F0002046FFF71CFF2046FFF70EFC1FB102200E
:1024000084F8FC0149E084F8FC5146E020461AE0DB
:10241000FFF78EFF41E0CB88012B14D190F8FC31FF
:10242000022B02D0032B0ED104E08260012200F1C6
:10243000080114E00122011D11E090F8FC21022A9C
:1024400004D0032A02D0FFF7C4FB26E0C560D0F811
:10245000041209B10321C160022200F10C01FFF74F
:10246000CEFB1AE004464888012816D1C4F804526D
:102470000BE0044690F8FC01022801D00328C5D1E6
:102480004888012809D1C4F80422D4F814028268CB
:10249000204690472046FFF7BFFB3046BDE8F0815D
:1024A00070B50D460446287800260979C0F341101E
:1024B000012806D06878A0B301281FD003283FD197
:1024C00007E0D4F81402294682682046904700208D
:1024D00070BD94F8FC01022817D003282CD168881D
:1024E00028B921B1802902D02046FFF7D6FED4F8C2
:1024F0001402294682682046904713E094F8FC01B4
:10250000022802D0032817D103E0C9B180291BD1CA
:1025100016E06888A0B9480604D02046FFF75FFDA2
:10252000E5E703E02046FFF777FB09E094F8FC01BC
:10253000022807D003280BD029462046FFF749FB85
:10254000304670BD4806FBD02046FFF7A6FEF7E7F1
:10255000080601F07F0004EB001501D5143501E0F9
:1025600005F582752046FFF70BFE00B101202860BB
:10257000022229462046FFF742FBE1E770B50546F7
:1025800090F8FC010C4603280DD1207901280AD8C7
:10259000D5F81402826828469047E08830B928466A
:1025A000FFF73AFB02E02846FFF713FB002070BD5F
:1025B0007047000000487047B80300202DE9F0473D
:1025C000CC780A7848F68F1334B1012C6DD0022CE8
:1025D00008D0032C13D10BE030F822401C4044F407
:1025E00000730AE030F822401C4020F8224006E048
:1025F00030F822401C4044F4C06320F822300C78AC
:1026000030F8245048F68F72154048F280031D437D
:10261000254320F824508D7A48F6BF7904274BF6DD
:102620008F7A48F2C0044CF28006EDB30D7830F892
:1026300025C048F280180CEA020C4CEA080C20F87D
:1026400025C0CD88B0F850C025F0010591F8008074
:102650000CEBC80C00EB4C0CCCF800540D89B0F816
:1026600050C025F0010591F8008007EBC8076744CA
:1026700000EB4707C7F800544D78002D0D7830F86F
:1026800025704FEA47477DD0002F05DA30F82570D6
:102690001740374320F825700D7830F825707F06F5
:1026A00008D530F8257001E024E01DE017402743ED
:1026B00020F825700C7830F824501540354320F868
:1026C00024500C7830F8242002EA09021A4320F83A
:1026D00024200A7830F8221001EA0A01194320F870
:1026E00022100020BDE8F08730F822401C4044F45E
:1026F000806382E74D78F5B18D88B0F8506025F0A1
:1027000001050F7806EBC70600EB4606C6F8005435
:102710000D7830F82560760605D530F8256016402E
:10272000264320F825600A7830F8221001EA0901D2
:1027300081F02001D2E78C88B0F8505024F00104D9
:1027400091F800C007EBCC073D4400EB4505C5F808
:102750000044B0F850400D78062707EBC5052C441F
:1027600000EB44070C694FF6FF7C07F580673E2CB1
:102770000CD9C4F34F15E40601D16D1EADB20CEABD
:10278000852400E01EE044F4004407E0C4F34F0554
:10279000E40701D06D1CADB20CEA85243C600C78D6
:1027A00030F824506D0405D530F8245015403543D9
:1027B00020F824500A7830F8221001EA0A0181F446
:1027C00040518BE7002F05DA30F82570174037436A
:1027D00020F825700D7830F82560760605D530F89C
:1027E00025601640264320F825600E7830F82650E4
:1027F0001540254320F826500C7830F8242002EAB2
:102800000A0282F440521A4320F824200A7830F851
:10281000221001EA090161E7002070472DE9F04329
:1028200091F80A8091F801C00A7848F6BF774BF614
:102830008F7948F2800348F2C0054CF2800648F6D2
:102840008F74B8F1000F2ED0BCF1000F30F822C009
:102850004FEA4C4C4ED0BCF1000F07DA30F822C0E2
:102860000CEA040C4CEA060C20F822C00A7830F876
:1028700022C05FEA4C6C07D530F822C00CEA040C89
:102880004CEA050C20F822C00A7830F82250254086
:10289000354320F822500C7830F824203A401A436F
:1028A00020F824201BE0BCF1000F0ED030F822608D
:1028B000760605D530F8226026402E4320F82260A7
:1028C0000A7830F8221039400EE030F822506D04BA
:1028D00005D530F822502540354320F822500A789B
:1028E00030F8221001EA0901194320F822100020D3
:1028F000BDE8F083BCF1000F07DA30F822C00CEA23
:10290000040C4CEA060C20F822C00A7830F8226049
:10291000760605D530F8226026402E4320F8226046
:102920000E7830F8262022402A4320F826200C7802
:1029300030F8242002EA09021A4320F82420BFE7D5
:10294000002070470020704700B50121A0F840101A
:102950000021A0F84010A0F84410A0F8501000F09A
:102960003AF9002000BD30F8401F21F43D410180BC
:10297000002070470020704730B54D780A78002D50
:1029800048F68F7430F8225048F2800312D06D065A
:1029900007D530F82250254048F2C004254320F8DE
:1029A00022500A7830F8221048F6BF74214081F096
:1029B000300111E06D0407D530F8225025404CF26B
:1029C0008004254320F822500A7830F822104BF674
:1029D0008F74214081F44051194320F822100020C7
:1029E00030BD10B50A7848F2800352B14978002909
:1029F00030F8221010D048F6BF74214081F0100149
:102A00000FE001884BF6BF72114081F4805181F0D4
:102A100010011943018007E04BF68F74214081F4C7
:102A20008051194320F82210002010BD2DE9F041FB
:102A30000D460646896995F801C00023AA7A022747
:102A400028690C4648F28008BCF1010F05D081428C
:102A500052D90446081AA8614FE0814203D90446BE
:102A6000081AA86100E0AB617AB1287836F8201026
:102A70004906B6F8501007EBC000084406EB4000CA
:102A8000C0F8004412D52A8911E0A3B2AA883046C2
:102A9000696900F0C8F8B6F85000297807EBC10161
:102AA000084406EB4000C0F800441CE0EA88A3B2EA
:102AB0003046696900F0B7F8687848F68F7110B150
:102AC000012807D00FE0287836F820200A4048F285
:102AD000C00105E0287836F820200A404CF2800139
:102AE0000A4326F82020297836F8210048F6BF72DC
:102AF000104080F0300067E0AB6106234FF6FF70B6
:102B00001AB1BCF1000F1BD056E0B6F850102A786D
:102B10003E2C03EBC202114406EB410202F5806237
:102B200039D9C4F34F11E30632D000BF00EA812047
:102B300040F4004002E000BF00EA812010603BE06A
:102B4000B6F850102A783E2C07EBC202114406EB6F
:102B5000410202F580620BD9C4F34F115FEAC46CE5
:102B600001D1491E89B200EA812141F4004108E007
:102B7000C4F34F015FEAC47C01D0491C89B200EA6A
:102B80008121116069780029BFD001290AD013E0A2
:102B9000491E89B2CAE7C4F34F01E307CCD0491CF0
:102BA00089B2C9E7B6F85000297807EBC10108449B
:102BB00006EB4000C0F80044297836F821004BF6B7
:102BC0008F72104080F4405040EA080026F821003F
:102BD0000020BDE8F08130F8401F41F43F41018002
:102BE000002070470148FDF7AEBD0000CC03002077
:102BF000B0F84400704700005B1C00EB42005B082B
:102C000000F5806006D000BF30F8042B21F8022BBD
:102C10005B1EF9D170470020704711B98021A0F8E0
:102C20004C100020704710B55B1C00EB42005B08A5
:102C300000F5806009D011F8012B5B1E11F8014BE3
:102C400042EA042220F8042BF5D110BDFEE702E091
:102C500008C8121F08C1002AFAD170477047002027
:102C600001E001C1121F002AFBD1704708B5FDF732
:102C7000F5FBFEF7BEFD1848816941F02001816136
:102C8000816901F020010091816941F004018161B5
:102C9000806900F004000090FEF7B6FB10480F4971
:102CA0000C2201604FF4E131416000218160C1607C
:102CB000C0E904128161C161FEF74EFA012209499F
:102CC0000748FEF7BBFA0848FEF782FD06490748A9
:102CD000FEF78AFDFAE700000010024000380140CC
:102CE000540100201000002000000020940100206A
:102CF00000000000000000000102030406070809AC
:102D00000000000001020304282D0008000000203C
:102D10005401000090010008042E00085401002016
:102D2000DC0C00005E2C0008011C13511C1B0881E8
:102D3000041A8D041AB1041AD9041A31041A5D0454
:102D400017040309041201320225400D0F921401E9
:102D500001022201031A1A03191F11821044A24A08
:102D60000413B51E1B087D0413151F82081A4F108B
:102D70001A5D04C11A9D1069041AA9041C090229CC
:102D800073111C80FA09472A0275150921110114D3
:102D90000122561607058103402D0507050207A9E4
:102DA0001A314B0A06B4298C100805010905A10146
:102DB00015142501351021450175019510050919D6
:102DC000012910810205012507463B017504950183
:102DD00065140939814265179501810126FF134663
:102DE000FF10100930093109320935750895048141
:102DF00002061CFF09201D200A020A2126950891BF
:042E000002C000000C
:04000005080000ED02
:00000001FF
